{
  "_format": "hh-sol-artifact-1",
  "contractName": "_8Fall",
  "sourceName": "contracts/_8Fall.sol",
  "abi": [
    {
      "inputs": [],
      "stateMutability": "payable",
      "type": "constructor"
    },
    {
      "anonymous": false,
      "inputs": [
        {
          "indexed": true,
          "internalType": "address",
          "name": "owner",
          "type": "address"
        },
        {
          "indexed": true,
          "internalType": "address",
          "name": "approved",
          "type": "address"
        },
        {
          "indexed": true,
          "internalType": "uint256",
          "name": "tokenId",
          "type": "uint256"
        }
      ],
      "name": "Approval",
      "type": "event"
    },
    {
      "anonymous": false,
      "inputs": [
        {
          "indexed": true,
          "internalType": "address",
          "name": "owner",
          "type": "address"
        },
        {
          "indexed": true,
          "internalType": "address",
          "name": "operator",
          "type": "address"
        },
        {
          "indexed": false,
          "internalType": "bool",
          "name": "approved",
          "type": "bool"
        }
      ],
      "name": "ApprovalForAll",
      "type": "event"
    },
    {
      "anonymous": false,
      "inputs": [
        {
          "indexed": true,
          "internalType": "address",
          "name": "previousOwner",
          "type": "address"
        },
        {
          "indexed": true,
          "internalType": "address",
          "name": "newOwner",
          "type": "address"
        }
      ],
      "name": "OwnershipTransferred",
      "type": "event"
    },
    {
      "anonymous": false,
      "inputs": [
        {
          "indexed": true,
          "internalType": "address",
          "name": "from",
          "type": "address"
        },
        {
          "indexed": true,
          "internalType": "address",
          "name": "to",
          "type": "address"
        },
        {
          "indexed": true,
          "internalType": "uint256",
          "name": "tokenId",
          "type": "uint256"
        }
      ],
      "name": "Transfer",
      "type": "event"
    },
    {
      "inputs": [
        {
          "internalType": "address",
          "name": "to",
          "type": "address"
        },
        {
          "internalType": "uint256",
          "name": "tokenId",
          "type": "uint256"
        }
      ],
      "name": "approve",
      "outputs": [],
      "stateMutability": "nonpayable",
      "type": "function"
    },
    {
      "inputs": [
        {
          "internalType": "address",
          "name": "owner",
          "type": "address"
        }
      ],
      "name": "balanceOf",
      "outputs": [
        {
          "internalType": "uint256",
          "name": "",
          "type": "uint256"
        }
      ],
      "stateMutability": "view",
      "type": "function"
    },
    {
      "inputs": [
        {
          "internalType": "uint256",
          "name": "tokenId",
          "type": "uint256"
        }
      ],
      "name": "getApproved",
      "outputs": [
        {
          "internalType": "address",
          "name": "",
          "type": "address"
        }
      ],
      "stateMutability": "view",
      "type": "function"
    },
    {
      "inputs": [
        {
          "internalType": "address",
          "name": "owner",
          "type": "address"
        },
        {
          "internalType": "address",
          "name": "operator",
          "type": "address"
        }
      ],
      "name": "isApprovedForAll",
      "outputs": [
        {
          "internalType": "bool",
          "name": "",
          "type": "bool"
        }
      ],
      "stateMutability": "view",
      "type": "function"
    },
    {
      "inputs": [],
      "name": "isPublicMintEnabled",
      "outputs": [
        {
          "internalType": "bool",
          "name": "",
          "type": "bool"
        }
      ],
      "stateMutability": "view",
      "type": "function"
    },
    {
      "inputs": [],
      "name": "maxPerWallet",
      "outputs": [
        {
          "internalType": "uint256",
          "name": "",
          "type": "uint256"
        }
      ],
      "stateMutability": "view",
      "type": "function"
    },
    {
      "inputs": [],
      "name": "maxSupply",
      "outputs": [
        {
          "internalType": "uint256",
          "name": "",
          "type": "uint256"
        }
      ],
      "stateMutability": "view",
      "type": "function"
    },
    {
      "inputs": [
        {
          "internalType": "uint256",
          "name": "quantity_",
          "type": "uint256"
        }
      ],
      "name": "mint",
      "outputs": [],
      "stateMutability": "payable",
      "type": "function"
    },
    {
      "inputs": [],
      "name": "mintPrice",
      "outputs": [
        {
          "internalType": "uint256",
          "name": "",
          "type": "uint256"
        }
      ],
      "stateMutability": "view",
      "type": "function"
    },
    {
      "inputs": [],
      "name": "name",
      "outputs": [
        {
          "internalType": "string",
          "name": "",
          "type": "string"
        }
      ],
      "stateMutability": "view",
      "type": "function"
    },
    {
      "inputs": [],
      "name": "owner",
      "outputs": [
        {
          "internalType": "address",
          "name": "",
          "type": "address"
        }
      ],
      "stateMutability": "view",
      "type": "function"
    },
    {
      "inputs": [
        {
          "internalType": "uint256",
          "name": "tokenId",
          "type": "uint256"
        }
      ],
      "name": "ownerOf",
      "outputs": [
        {
          "internalType": "address",
          "name": "",
          "type": "address"
        }
      ],
      "stateMutability": "view",
      "type": "function"
    },
    {
      "inputs": [],
      "name": "renounceOwnership",
      "outputs": [],
      "stateMutability": "nonpayable",
      "type": "function"
    },
    {
      "inputs": [
        {
          "internalType": "address",
          "name": "from",
          "type": "address"
        },
        {
          "internalType": "address",
          "name": "to",
          "type": "address"
        },
        {
          "internalType": "uint256",
          "name": "tokenId",
          "type": "uint256"
        }
      ],
      "name": "safeTransferFrom",
      "outputs": [],
      "stateMutability": "nonpayable",
      "type": "function"
    },
    {
      "inputs": [
        {
          "internalType": "address",
          "name": "from",
          "type": "address"
        },
        {
          "internalType": "address",
          "name": "to",
          "type": "address"
        },
        {
          "internalType": "uint256",
          "name": "tokenId",
          "type": "uint256"
        },
        {
          "internalType": "bytes",
          "name": "_data",
          "type": "bytes"
        }
      ],
      "name": "safeTransferFrom",
      "outputs": [],
      "stateMutability": "nonpayable",
      "type": "function"
    },
    {
      "inputs": [
        {
          "internalType": "address",
          "name": "operator",
          "type": "address"
        },
        {
          "internalType": "bool",
          "name": "approved",
          "type": "bool"
        }
      ],
      "name": "setApprovalForAll",
      "outputs": [],
      "stateMutability": "nonpayable",
      "type": "function"
    },
    {
      "inputs": [
        {
          "internalType": "string",
          "name": "baseTokenUri_",
          "type": "string"
        }
      ],
      "name": "setBaseTokenUri",
      "outputs": [],
      "stateMutability": "nonpayable",
      "type": "function"
    },
    {
      "inputs": [
        {
          "internalType": "bool",
          "name": "isPublicMintEnabled_",
          "type": "bool"
        }
      ],
      "name": "setIsPublicMintEnabled",
      "outputs": [],
      "stateMutability": "nonpayable",
      "type": "function"
    },
    {
      "inputs": [
        {
          "internalType": "bytes4",
          "name": "interfaceId",
          "type": "bytes4"
        }
      ],
      "name": "supportsInterface",
      "outputs": [
        {
          "internalType": "bool",
          "name": "",
          "type": "bool"
        }
      ],
      "stateMutability": "view",
      "type": "function"
    },
    {
      "inputs": [],
      "name": "symbol",
      "outputs": [
        {
          "internalType": "string",
          "name": "",
          "type": "string"
        }
      ],
      "stateMutability": "view",
      "type": "function"
    },
    {
      "inputs": [
        {
          "internalType": "uint256",
          "name": "tokenId",
          "type": "uint256"
        }
      ],
      "name": "tokenURI",
      "outputs": [
        {
          "internalType": "string",
          "name": "",
          "type": "string"
        }
      ],
      "stateMutability": "view",
      "type": "function"
    },
    {
      "inputs": [
        {
          "internalType": "uint256",
          "name": "tokenId_",
          "type": "uint256"
        }
      ],
      "name": "tokenUri",
      "outputs": [
        {
          "internalType": "string",
          "name": "",
          "type": "string"
        }
      ],
      "stateMutability": "view",
      "type": "function"
    },
    {
      "inputs": [],
      "name": "totalSupply",
      "outputs": [
        {
          "internalType": "uint256",
          "name": "",
          "type": "uint256"
        }
      ],
      "stateMutability": "view",
      "type": "function"
    },
    {
      "inputs": [
        {
          "internalType": "address",
          "name": "from",
          "type": "address"
        },
        {
          "internalType": "address",
          "name": "to",
          "type": "address"
        },
        {
          "internalType": "uint256",
          "name": "tokenId",
          "type": "uint256"
        }
      ],
      "name": "transferFrom",
      "outputs": [],
      "stateMutability": "nonpayable",
      "type": "function"
    },
    {
      "inputs": [
        {
          "internalType": "address",
          "name": "newOwner",
          "type": "address"
        }
      ],
      "name": "transferOwnership",
      "outputs": [],
      "stateMutability": "nonpayable",
      "type": "function"
    },
    {
      "inputs": [
        {
          "internalType": "address",
          "name": "",
          "type": "address"
        }
      ],
      "name": "walletMints",
      "outputs": [
        {
          "internalType": "uint256",
          "name": "",
          "type": "uint256"
        }
      ],
      "stateMutability": "view",
      "type": "function"
    },
    {
      "inputs": [],
      "name": "withdrawWallet",
      "outputs": [
        {
          "internalType": "address payable",
          "name": "",
          "type": "address"
        }
      ],
      "stateMutability": "view",
      "type": "function"
    }
  ],
  "bytecode": "0x60806040526040518060400160405280600681526020017f382046616c6c00000000000000000000000000000000000000000000000000008152506040518060400160405280600281526020017f384600000000000000000000000000000000000000000000000000000000000081525081600090805190602001906200008892919062000213565b508060019080519060200190620000a192919062000213565b505050620000c4620000b86200014560201b60201c565b6200014d60201b60201c565b66038d7ea4c68000600781905550600060088190555060646009819055506005600a81905550737cac73c29b3091bfea5e8191a11f21283679b482600d60006101000a81548173ffffffffffffffffffffffffffffffffffffffff021916908373ffffffffffffffffffffffffffffffffffffffff16021790555062000328565b600033905090565b6000600660009054906101000a900473ffffffffffffffffffffffffffffffffffffffff16905081600660006101000a81548173ffffffffffffffffffffffffffffffffffffffff021916908373ffffffffffffffffffffffffffffffffffffffff1602179055508173ffffffffffffffffffffffffffffffffffffffff168173ffffffffffffffffffffffffffffffffffffffff167f8be0079c531659141344cd1fd0a4f28419497f9722a3daafe3b4186f6b6457e060405160405180910390a35050565b8280546200022190620002c3565b90600052602060002090601f01602090048101928262000245576000855562000291565b82601f106200026057805160ff191683800117855562000291565b8280016001018555821562000291579182015b828111156200029057825182559160200191906001019062000273565b5b509050620002a09190620002a4565b5090565b5b80821115620002bf576000816000905550600101620002a5565b5090565b60006002820490506001821680620002dc57607f821691505b60208210811415620002f357620002f2620002f9565b5b50919050565b7f4e487b7100000000000000000000000000000000000000000000000000000000600052602260045260246000fd5b61372e80620003386000396000f3fe60806040526004361061019c5760003560e01c806370a08231116100ec578063a22cb4651161008a578063d5abeb0111610064578063d5abeb01146105b9578063e985e9c5146105e4578063f0293fd314610621578063f2fde38b1461065e5761019c565b8063a22cb4651461052a578063b88d4fde14610553578063c87b56dd1461057c5761019c565b80638da5cb5b116100c65780638da5cb5b1461048f57806395652cfa146104ba57806395d89b41146104e3578063a0712d681461050e5761019c565b806370a0823114610410578063715018a61461044d57806385d178f4146104645761019c565b806318160ddd1161015957806342842e0e1161013357806342842e0e14610354578063453c23101461037d5780636352211e146103a85780636817c76c146103e55761019c565b806318160ddd146102d75780632373ac221461030257806323b872dd1461032b5761019c565b80630116bc2d146101a157806301ffc9a7146101cc57806306fdde0314610209578063081812fc14610234578063095ea7b3146102715780631675f4551461029a575b600080fd5b3480156101ad57600080fd5b506101b6610687565b6040516101c39190612a21565b60405180910390f35b3480156101d857600080fd5b506101f360048036038101906101ee919061242c565b61069a565b6040516102009190612a21565b60405180910390f35b34801561021557600080fd5b5061021e61077c565b60405161022b9190612a3c565b60405180910390f35b34801561024057600080fd5b5061025b600480360381019061025691906124c3565b61080e565b604051610268919061299f565b60405180910390f35b34801561027d57600080fd5b50610298600480360381019061029391906123c7565b610893565b005b3480156102a657600080fd5b506102c160048036038101906102bc91906124c3565b6109ab565b6040516102ce9190612a3c565b60405180910390f35b3480156102e357600080fd5b506102ec610a27565b6040516102f99190612cfe565b60405180910390f35b34801561030e57600080fd5b5061032960048036038101906103249190612403565b610a2d565b005b34801561033757600080fd5b50610352600480360381019061034d91906122c1565b610ac6565b005b34801561036057600080fd5b5061037b600480360381019061037691906122c1565b610b26565b005b34801561038957600080fd5b50610392610b46565b60405161039f9190612cfe565b60405180910390f35b3480156103b457600080fd5b506103cf60048036038101906103ca91906124c3565b610b4c565b6040516103dc919061299f565b60405180910390f35b3480156103f157600080fd5b506103fa610bfe565b6040516104079190612cfe565b60405180910390f35b34801561041c57600080fd5b506104376004803603810190610432919061225c565b610c04565b6040516104449190612cfe565b60405180910390f35b34801561045957600080fd5b50610462610cbc565b005b34801561047057600080fd5b50610479610d44565b60405161048691906129ba565b60405180910390f35b34801561049b57600080fd5b506104a4610d6a565b6040516104b1919061299f565b60405180910390f35b3480156104c657600080fd5b506104e160048036038101906104dc919061247e565b610d94565b005b3480156104ef57600080fd5b506104f8610e26565b6040516105059190612a3c565b60405180910390f35b610528600480360381019061052391906124c3565b610eb8565b005b34801561053657600080fd5b50610551600480360381019061054c919061238b565b61108f565b005b34801561055f57600080fd5b5061057a60048036038101906105759190612310565b6110a5565b005b34801561058857600080fd5b506105a3600480360381019061059e91906124c3565b611107565b6040516105b09190612a3c565b60405180910390f35b3480156105c557600080fd5b506105ce6111ae565b6040516105db9190612cfe565b60405180910390f35b3480156105f057600080fd5b5061060b60048036038101906106069190612285565b6111b4565b6040516106189190612a21565b60405180910390f35b34801561062d57600080fd5b506106486004803603810190610643919061225c565b611248565b6040516106559190612cfe565b60405180910390f35b34801561066a57600080fd5b506106856004803603810190610680919061225c565b611260565b005b600b60009054906101000a900460ff1681565b60007f80ac58cd000000000000000000000000000000000000000000000000000000007bffffffffffffffffffffffffffffffffffffffffffffffffffffffff1916827bffffffffffffffffffffffffffffffffffffffffffffffffffffffff1916148061076557507f5b5e139f000000000000000000000000000000000000000000000000000000007bffffffffffffffffffffffffffffffffffffffffffffffffffffffff1916827bffffffffffffffffffffffffffffffffffffffffffffffffffffffff1916145b80610775575061077482611358565b5b9050919050565b60606000805461078b90612fa4565b80601f01602080910402602001604051908101604052809291908181526020018280546107b790612fa4565b80156108045780601f106107d957610100808354040283529160200191610804565b820191906000526020600020905b8154815290600101906020018083116107e757829003601f168201915b5050505050905090565b6000610819826113c2565b610858576040517f08c379a000000000000000000000000000000000000000000000000000000000815260040161084f90612bbe565b60405180910390fd5b6004600083815260200190815260200160002060009054906101000a900473ffffffffffffffffffffffffffffffffffffffff169050919050565b600061089e82610b4c565b90508073ffffffffffffffffffffffffffffffffffffffff168373ffffffffffffffffffffffffffffffffffffffff16141561090f576040517f08c379a000000000000000000000000000000000000000000000000000000000815260040161090690612c5e565b60405180910390fd5b8073ffffffffffffffffffffffffffffffffffffffff1661092e61142e565b73ffffffffffffffffffffffffffffffffffffffff16148061095d575061095c8161095761142e565b6111b4565b5b61099c576040517f08c379a000000000000000000000000000000000000000000000000000000000815260040161099390612b3e565b60405180910390fd5b6109a68383611436565b505050565b60606109b6826113c2565b6109f5576040517f08c379a00000000000000000000000000000000000000000000000000000000081526004016109ec90612cde565b60405180910390fd5b600c610a00836114ef565b604051602001610a11929190612970565b6040516020818303038152906040529050919050565b60085481565b610a3561142e565b73ffffffffffffffffffffffffffffffffffffffff16610a53610d6a565b73ffffffffffffffffffffffffffffffffffffffff1614610aa9576040517f08c379a0000000000000000000000000000000000000000000000000000000008152600401610aa090612bde565b60405180910390fd5b80600b60006101000a81548160ff02191690831515021790555050565b610ad7610ad161142e565b8261169c565b610b16576040517f08c379a0000000000000000000000000000000000000000000000000000000008152600401610b0d90612c7e565b60405180910390fd5b610b2183838361177a565b505050565b610b41838383604051806020016040528060008152506110a5565b505050565b600a5481565b6000806002600084815260200190815260200160002060009054906101000a900473ffffffffffffffffffffffffffffffffffffffff169050600073ffffffffffffffffffffffffffffffffffffffff168173ffffffffffffffffffffffffffffffffffffffff161415610bf5576040517f08c379a0000000000000000000000000000000000000000000000000000000008152600401610bec90612b7e565b60405180910390fd5b80915050919050565b60075481565b60008073ffffffffffffffffffffffffffffffffffffffff168273ffffffffffffffffffffffffffffffffffffffff161415610c75576040517f08c379a0000000000000000000000000000000000000000000000000000000008152600401610c6c90612b5e565b60405180910390fd5b600360008373ffffffffffffffffffffffffffffffffffffffff1673ffffffffffffffffffffffffffffffffffffffff168152602001908152602001600020549050919050565b610cc461142e565b73ffffffffffffffffffffffffffffffffffffffff16610ce2610d6a565b73ffffffffffffffffffffffffffffffffffffffff1614610d38576040517f08c379a0000000000000000000000000000000000000000000000000000000008152600401610d2f90612bde565b60405180910390fd5b610d4260006119e1565b565b600d60009054906101000a900473ffffffffffffffffffffffffffffffffffffffff1681565b6000600660009054906101000a900473ffffffffffffffffffffffffffffffffffffffff16905090565b610d9c61142e565b73ffffffffffffffffffffffffffffffffffffffff16610dba610d6a565b73ffffffffffffffffffffffffffffffffffffffff1614610e10576040517f08c379a0000000000000000000000000000000000000000000000000000000008152600401610e0790612bde565b60405180910390fd5b8181600c9190610e2192919061209e565b505050565b606060018054610e3590612fa4565b80601f0160208091040260200160405190810160405280929190818152602001828054610e6190612fa4565b8015610eae5780601f10610e8357610100808354040283529160200191610eae565b820191906000526020600020905b815481529060010190602001808311610e9157829003601f168201915b5050505050905090565b600b60009054906101000a900460ff16610f07576040517f08c379a0000000000000000000000000000000000000000000000000000000008152600401610efe90612c1e565b60405180910390fd5b60075481610f159190612e4e565b3414610f56576040517f08c379a0000000000000000000000000000000000000000000000000000000008152600401610f4d90612cbe565b60405180910390fd5b60095481600854610f679190612dc7565b1115610fa8576040517f08c379a0000000000000000000000000000000000000000000000000000000008152600401610f9f90612c9e565b60405180910390fd5b600a5481600e60003373ffffffffffffffffffffffffffffffffffffffff1673ffffffffffffffffffffffffffffffffffffffff16815260200190815260200160002054610ff69190612dc7565b1115611037576040517f08c379a000000000000000000000000000000000000000000000000000000000815260040161102e90612bfe565b60405180910390fd5b60005b8181101561108b57600060016008546110539190612dc7565b90506008600081548092919061106890613007565b91905055506110773382611aa7565b50808061108390613007565b91505061103a565b5050565b6110a161109a61142e565b8383611ac5565b5050565b6110b66110b061142e565b8361169c565b6110f5576040517f08c379a00000000000000000000000000000000000000000000000000000000081526004016110ec90612c7e565b60405180910390fd5b61110184848484611c32565b50505050565b6060611112826113c2565b611151576040517f08c379a000000000000000000000000000000000000000000000000000000000815260040161114890612c3e565b60405180910390fd5b600061115b611c8e565b9050600081511161117b57604051806020016040528060008152506111a6565b80611185846114ef565b60405160200161119692919061294c565b6040516020818303038152906040525b915050919050565b60095481565b6000600560008473ffffffffffffffffffffffffffffffffffffffff1673ffffffffffffffffffffffffffffffffffffffff16815260200190815260200160002060008373ffffffffffffffffffffffffffffffffffffffff1673ffffffffffffffffffffffffffffffffffffffff16815260200190815260200160002060009054906101000a900460ff16905092915050565b600e6020528060005260406000206000915090505481565b61126861142e565b73ffffffffffffffffffffffffffffffffffffffff16611286610d6a565b73ffffffffffffffffffffffffffffffffffffffff16146112dc576040517f08c379a00000000000000000000000000000000000000000000000000000000081526004016112d390612bde565b60405180910390fd5b600073ffffffffffffffffffffffffffffffffffffffff168173ffffffffffffffffffffffffffffffffffffffff16141561134c576040517f08c379a000000000000000000000000000000000000000000000000000000000815260040161134390612a7e565b60405180910390fd5b611355816119e1565b50565b60007f01ffc9a7000000000000000000000000000000000000000000000000000000007bffffffffffffffffffffffffffffffffffffffffffffffffffffffff1916827bffffffffffffffffffffffffffffffffffffffffffffffffffffffff1916149050919050565b60008073ffffffffffffffffffffffffffffffffffffffff166002600084815260200190815260200160002060009054906101000a900473ffffffffffffffffffffffffffffffffffffffff1673ffffffffffffffffffffffffffffffffffffffff1614159050919050565b600033905090565b816004600083815260200190815260200160002060006101000a81548173ffffffffffffffffffffffffffffffffffffffff021916908373ffffffffffffffffffffffffffffffffffffffff160217905550808273ffffffffffffffffffffffffffffffffffffffff166114a983610b4c565b73ffffffffffffffffffffffffffffffffffffffff167f8c5be1e5ebec7d5bd14f71427d1e84f3dd0314c0f7b2291e5b200ac8c7c3b92560405160405180910390a45050565b60606000821415611537576040518060400160405280600181526020017f30000000000000000000000000000000000000000000000000000000000000008152509050611697565b600082905060005b6000821461156957808061155290613007565b915050600a826115629190612e1d565b915061153f565b60008167ffffffffffffffff8111156115ab577f4e487b7100000000000000000000000000000000000000000000000000000000600052604160045260246000fd5b6040519080825280601f01601f1916602001820160405280156115dd5781602001600182028036833780820191505090505b5090505b60008514611690576001826115f69190612ea8565b9150600a856116059190613050565b60306116119190612dc7565b60f81b81838151811061164d577f4e487b7100000000000000000000000000000000000000000000000000000000600052603260045260246000fd5b60200101907effffffffffffffffffffffffffffffffffffffffffffffffffffffffffffff1916908160001a905350600a856116899190612e1d565b94506115e1565b8093505050505b919050565b60006116a7826113c2565b6116e6576040517f08c379a00000000000000000000000000000000000000000000000000000000081526004016116dd90612b1e565b60405180910390fd5b60006116f183610b4c565b90508073ffffffffffffffffffffffffffffffffffffffff168473ffffffffffffffffffffffffffffffffffffffff161480611733575061173281856111b4565b5b8061177157508373ffffffffffffffffffffffffffffffffffffffff166117598461080e565b73ffffffffffffffffffffffffffffffffffffffff16145b91505092915050565b8273ffffffffffffffffffffffffffffffffffffffff1661179a82610b4c565b73ffffffffffffffffffffffffffffffffffffffff16146117f0576040517f08c379a00000000000000000000000000000000000000000000000000000000081526004016117e790612a9e565b60405180910390fd5b600073ffffffffffffffffffffffffffffffffffffffff168273ffffffffffffffffffffffffffffffffffffffff161415611860576040517f08c379a000000000000000000000000000000000000000000000000000000000815260040161185790612ade565b60405180910390fd5b61186b838383611ca5565b611876600082611436565b6001600360008573ffffffffffffffffffffffffffffffffffffffff1673ffffffffffffffffffffffffffffffffffffffff16815260200190815260200160002060008282546118c69190612ea8565b925050819055506001600360008473ffffffffffffffffffffffffffffffffffffffff1673ffffffffffffffffffffffffffffffffffffffff168152602001908152602001600020600082825461191d9190612dc7565b92505081905550816002600083815260200190815260200160002060006101000a81548173ffffffffffffffffffffffffffffffffffffffff021916908373ffffffffffffffffffffffffffffffffffffffff160217905550808273ffffffffffffffffffffffffffffffffffffffff168473ffffffffffffffffffffffffffffffffffffffff167fddf252ad1be2c89b69c2b068fc378daa952ba7f163c4a11628f55a4df523b3ef60405160405180910390a46119dc838383611caa565b505050565b6000600660009054906101000a900473ffffffffffffffffffffffffffffffffffffffff16905081600660006101000a81548173ffffffffffffffffffffffffffffffffffffffff021916908373ffffffffffffffffffffffffffffffffffffffff1602179055508173ffffffffffffffffffffffffffffffffffffffff168173ffffffffffffffffffffffffffffffffffffffff167f8be0079c531659141344cd1fd0a4f28419497f9722a3daafe3b4186f6b6457e060405160405180910390a35050565b611ac1828260405180602001604052806000815250611caf565b5050565b8173ffffffffffffffffffffffffffffffffffffffff168373ffffffffffffffffffffffffffffffffffffffff161415611b34576040517f08c379a0000000000000000000000000000000000000000000000000000000008152600401611b2b90612afe565b60405180910390fd5b80600560008573ffffffffffffffffffffffffffffffffffffffff1673ffffffffffffffffffffffffffffffffffffffff16815260200190815260200160002060008473ffffffffffffffffffffffffffffffffffffffff1673ffffffffffffffffffffffffffffffffffffffff16815260200190815260200160002060006101000a81548160ff0219169083151502179055508173ffffffffffffffffffffffffffffffffffffffff168373ffffffffffffffffffffffffffffffffffffffff167f17307eab39ab6107e8899845ad3d59bd9653f200f220920489ca2b5937696c3183604051611c259190612a21565b60405180910390a3505050565b611c3d84848461177a565b611c4984848484611d0a565b611c88576040517f08c379a0000000000000000000000000000000000000000000000000000000008152600401611c7f90612a5e565b60405180910390fd5b50505050565b606060405180602001604052806000815250905090565b505050565b505050565b611cb98383611ea1565b611cc66000848484611d0a565b611d05576040517f08c379a0000000000000000000000000000000000000000000000000000000008152600401611cfc90612a5e565b60405180910390fd5b505050565b6000611d2b8473ffffffffffffffffffffffffffffffffffffffff1661207b565b15611e94578373ffffffffffffffffffffffffffffffffffffffff1663150b7a02611d5461142e565b8786866040518563ffffffff1660e01b8152600401611d7694939291906129d5565b602060405180830381600087803b158015611d9057600080fd5b505af1925050508015611dc157506040513d601f19601f82011682018060405250810190611dbe9190612455565b60015b611e44573d8060008114611df1576040519150601f19603f3d011682016040523d82523d6000602084013e611df6565b606091505b50600081511415611e3c576040517f08c379a0000000000000000000000000000000000000000000000000000000008152600401611e3390612a5e565b60405180910390fd5b805181602001fd5b63150b7a0260e01b7bffffffffffffffffffffffffffffffffffffffffffffffffffffffff1916817bffffffffffffffffffffffffffffffffffffffffffffffffffffffff191614915050611e99565b600190505b949350505050565b600073ffffffffffffffffffffffffffffffffffffffff168273ffffffffffffffffffffffffffffffffffffffff161415611f11576040517f08c379a0000000000000000000000000000000000000000000000000000000008152600401611f0890612b9e565b60405180910390fd5b611f1a816113c2565b15611f5a576040517f08c379a0000000000000000000000000000000000000000000000000000000008152600401611f5190612abe565b60405180910390fd5b611f6660008383611ca5565b6001600360008473ffffffffffffffffffffffffffffffffffffffff1673ffffffffffffffffffffffffffffffffffffffff1681526020019081526020016000206000828254611fb69190612dc7565b92505081905550816002600083815260200190815260200160002060006101000a81548173ffffffffffffffffffffffffffffffffffffffff021916908373ffffffffffffffffffffffffffffffffffffffff160217905550808273ffffffffffffffffffffffffffffffffffffffff16600073ffffffffffffffffffffffffffffffffffffffff167fddf252ad1be2c89b69c2b068fc378daa952ba7f163c4a11628f55a4df523b3ef60405160405180910390a461207760008383611caa565b5050565b6000808273ffffffffffffffffffffffffffffffffffffffff163b119050919050565b8280546120aa90612fa4565b90600052602060002090601f0160209004810192826120cc5760008555612113565b82601f106120e557803560ff1916838001178555612113565b82800160010185558215612113579182015b828111156121125782358255916020019190600101906120f7565b5b5090506121209190612124565b5090565b5b8082111561213d576000816000905550600101612125565b5090565b600061215461214f84612d3e565b612d19565b90508281526020810184848401111561216c57600080fd5b612177848285612f62565b509392505050565b60008135905061218e8161369c565b92915050565b6000813590506121a3816136b3565b92915050565b6000813590506121b8816136ca565b92915050565b6000815190506121cd816136ca565b92915050565b600082601f8301126121e457600080fd5b81356121f4848260208601612141565b91505092915050565b60008083601f84011261220f57600080fd5b8235905067ffffffffffffffff81111561222857600080fd5b60208301915083600182028301111561224057600080fd5b9250929050565b600081359050612256816136e1565b92915050565b60006020828403121561226e57600080fd5b600061227c8482850161217f565b91505092915050565b6000806040838503121561229857600080fd5b60006122a68582860161217f565b92505060206122b78582860161217f565b9150509250929050565b6000806000606084860312156122d657600080fd5b60006122e48682870161217f565b93505060206122f58682870161217f565b925050604061230686828701612247565b9150509250925092565b6000806000806080858703121561232657600080fd5b60006123348782880161217f565b94505060206123458782880161217f565b935050604061235687828801612247565b925050606085013567ffffffffffffffff81111561237357600080fd5b61237f878288016121d3565b91505092959194509250565b6000806040838503121561239e57600080fd5b60006123ac8582860161217f565b92505060206123bd85828601612194565b9150509250929050565b600080604083850312156123da57600080fd5b60006123e88582860161217f565b92505060206123f985828601612247565b9150509250929050565b60006020828403121561241557600080fd5b600061242384828501612194565b91505092915050565b60006020828403121561243e57600080fd5b600061244c848285016121a9565b91505092915050565b60006020828403121561246757600080fd5b6000612475848285016121be565b91505092915050565b6000806020838503121561249157600080fd5b600083013567ffffffffffffffff8111156124ab57600080fd5b6124b7858286016121fd565b92509250509250929050565b6000602082840312156124d557600080fd5b60006124e384828501612247565b91505092915050565b6124f581612eee565b82525050565b61250481612edc565b82525050565b61251381612f00565b82525050565b600061252482612d84565b61252e8185612d9a565b935061253e818560208601612f71565b6125478161313d565b840191505092915050565b600061255d82612d8f565b6125678185612dab565b9350612577818560208601612f71565b6125808161313d565b840191505092915050565b600061259682612d8f565b6125a08185612dbc565b93506125b0818560208601612f71565b80840191505092915050565b600081546125c981612fa4565b6125d38186612dbc565b945060018216600081146125ee57600181146125ff57612632565b60ff19831686528186019350612632565b61260885612d6f565b60005b8381101561262a5781548189015260018201915060208101905061260b565b838801955050505b50505092915050565b6000612648603283612dab565b91506126538261314e565b604082019050919050565b600061266b602683612dab565b91506126768261319d565b604082019050919050565b600061268e602583612dab565b9150612699826131ec565b604082019050919050565b60006126b1601c83612dab565b91506126bc8261323b565b602082019050919050565b60006126d4602483612dab565b91506126df82613264565b604082019050919050565b60006126f7601983612dab565b9150612702826132b3565b602082019050919050565b600061271a602c83612dab565b9150612725826132dc565b604082019050919050565b600061273d603883612dab565b91506127488261332b565b604082019050919050565b6000612760602a83612dab565b915061276b8261337a565b604082019050919050565b6000612783602983612dab565b915061278e826133c9565b604082019050919050565b60006127a6602083612dab565b91506127b182613418565b602082019050919050565b60006127c9602c83612dab565b91506127d482613441565b604082019050919050565b60006127ec600583612dbc565b91506127f782613490565b600582019050919050565b600061280f602083612dab565b915061281a826134b9565b602082019050919050565b6000612832601183612dab565b915061283d826134e2565b602082019050919050565b6000612855601383612dab565b91506128608261350b565b602082019050919050565b6000612878602f83612dab565b915061288382613534565b604082019050919050565b600061289b602183612dab565b91506128a682613583565b604082019050919050565b60006128be603183612dab565b91506128c9826135d2565b604082019050919050565b60006128e1600883612dab565b91506128ec82613621565b602082019050919050565b6000612904601083612dab565b915061290f8261364a565b602082019050919050565b6000612927601583612dab565b915061293282613673565b602082019050919050565b61294681612f58565b82525050565b6000612958828561258b565b9150612964828461258b565b91508190509392505050565b600061297c82856125bc565b9150612988828461258b565b9150612993826127df565b91508190509392505050565b60006020820190506129b460008301846124fb565b92915050565b60006020820190506129cf60008301846124ec565b92915050565b60006080820190506129ea60008301876124fb565b6129f760208301866124fb565b612a04604083018561293d565b8181036060830152612a168184612519565b905095945050505050565b6000602082019050612a36600083018461250a565b92915050565b60006020820190508181036000830152612a568184612552565b905092915050565b60006020820190508181036000830152612a778161263b565b9050919050565b60006020820190508181036000830152612a978161265e565b9050919050565b60006020820190508181036000830152612ab781612681565b9050919050565b60006020820190508181036000830152612ad7816126a4565b9050919050565b60006020820190508181036000830152612af7816126c7565b9050919050565b60006020820190508181036000830152612b17816126ea565b9050919050565b60006020820190508181036000830152612b378161270d565b9050919050565b60006020820190508181036000830152612b5781612730565b9050919050565b60006020820190508181036000830152612b7781612753565b9050919050565b60006020820190508181036000830152612b9781612776565b9050919050565b60006020820190508181036000830152612bb781612799565b9050919050565b60006020820190508181036000830152612bd7816127bc565b9050919050565b60006020820190508181036000830152612bf781612802565b9050919050565b60006020820190508181036000830152612c1781612825565b9050919050565b60006020820190508181036000830152612c3781612848565b9050919050565b60006020820190508181036000830152612c578161286b565b9050919050565b60006020820190508181036000830152612c778161288e565b9050919050565b60006020820190508181036000830152612c97816128b1565b9050919050565b60006020820190508181036000830152612cb7816128d4565b9050919050565b60006020820190508181036000830152612cd7816128f7565b9050919050565b60006020820190508181036000830152612cf78161291a565b9050919050565b6000602082019050612d13600083018461293d565b92915050565b6000612d23612d34565b9050612d2f8282612fd6565b919050565b6000604051905090565b600067ffffffffffffffff821115612d5957612d5861310e565b5b612d628261313d565b9050602081019050919050565b60008190508160005260206000209050919050565b600081519050919050565b600081519050919050565b600082825260208201905092915050565b600082825260208201905092915050565b600081905092915050565b6000612dd282612f58565b9150612ddd83612f58565b9250827fffffffffffffffffffffffffffffffffffffffffffffffffffffffffffffffff03821115612e1257612e11613081565b5b828201905092915050565b6000612e2882612f58565b9150612e3383612f58565b925082612e4357612e426130b0565b5b828204905092915050565b6000612e5982612f58565b9150612e6483612f58565b9250817fffffffffffffffffffffffffffffffffffffffffffffffffffffffffffffffff0483118215151615612e9d57612e9c613081565b5b828202905092915050565b6000612eb382612f58565b9150612ebe83612f58565b925082821015612ed157612ed0613081565b5b828203905092915050565b6000612ee782612f38565b9050919050565b6000612ef982612f38565b9050919050565b60008115159050919050565b60007fffffffff0000000000000000000000000000000000000000000000000000000082169050919050565b600073ffffffffffffffffffffffffffffffffffffffff82169050919050565b6000819050919050565b82818337600083830152505050565b60005b83811015612f8f578082015181840152602081019050612f74565b83811115612f9e576000848401525b50505050565b60006002820490506001821680612fbc57607f821691505b60208210811415612fd057612fcf6130df565b5b50919050565b612fdf8261313d565b810181811067ffffffffffffffff82111715612ffe57612ffd61310e565b5b80604052505050565b600061301282612f58565b91507fffffffffffffffffffffffffffffffffffffffffffffffffffffffffffffffff82141561304557613044613081565b5b600182019050919050565b600061305b82612f58565b915061306683612f58565b925082613076576130756130b0565b5b828206905092915050565b7f4e487b7100000000000000000000000000000000000000000000000000000000600052601160045260246000fd5b7f4e487b7100000000000000000000000000000000000000000000000000000000600052601260045260246000fd5b7f4e487b7100000000000000000000000000000000000000000000000000000000600052602260045260246000fd5b7f4e487b7100000000000000000000000000000000000000000000000000000000600052604160045260246000fd5b6000601f19601f8301169050919050565b7f4552433732313a207472616e7366657220746f206e6f6e20455243373231526560008201527f63656976657220696d706c656d656e7465720000000000000000000000000000602082015250565b7f4f776e61626c653a206e6577206f776e657220697320746865207a65726f206160008201527f6464726573730000000000000000000000000000000000000000000000000000602082015250565b7f4552433732313a207472616e736665722066726f6d20696e636f72726563742060008201527f6f776e6572000000000000000000000000000000000000000000000000000000602082015250565b7f4552433732313a20746f6b656e20616c7265616479206d696e74656400000000600082015250565b7f4552433732313a207472616e7366657220746f20746865207a65726f2061646460008201527f7265737300000000000000000000000000000000000000000000000000000000602082015250565b7f4552433732313a20617070726f766520746f2063616c6c657200000000000000600082015250565b7f4552433732313a206f70657261746f7220717565727920666f72206e6f6e657860008201527f697374656e7420746f6b656e0000000000000000000000000000000000000000602082015250565b7f4552433732313a20617070726f76652063616c6c6572206973206e6f74206f7760008201527f6e6572206e6f7220617070726f76656420666f7220616c6c0000000000000000602082015250565b7f4552433732313a2062616c616e636520717565727920666f7220746865207a6560008201527f726f206164647265737300000000000000000000000000000000000000000000602082015250565b7f4552433732313a206f776e657220717565727920666f72206e6f6e657869737460008201527f656e7420746f6b656e0000000000000000000000000000000000000000000000602082015250565b7f4552433732313a206d696e7420746f20746865207a65726f2061646472657373600082015250565b7f4552433732313a20617070726f76656420717565727920666f72206e6f6e657860008201527f697374656e7420746f6b656e0000000000000000000000000000000000000000602082015250565b7f2e6a736f6e000000000000000000000000000000000000000000000000000000600082015250565b7f4f776e61626c653a2063616c6c6572206973206e6f7420746865206f776e6572600082015250565b7f457863656564206d61782077616c6c6574000000000000000000000000000000600082015250565b7f4d696e74696e67206e6f7420656e61626c656400000000000000000000000000600082015250565b7f4552433732314d657461646174613a2055524920717565727920666f72206e6f60008201527f6e6578697374656e7420746f6b656e0000000000000000000000000000000000602082015250565b7f4552433732313a20617070726f76616c20746f2063757272656e74206f776e6560008201527f7200000000000000000000000000000000000000000000000000000000000000602082015250565b7f4552433732313a207472616e736665722063616c6c6572206973206e6f74206f60008201527f776e6572206e6f7220617070726f766564000000000000000000000000000000602082015250565b7f536f6c64206f7574000000000000000000000000000000000000000000000000600082015250565b7f57726f6e67206d696e742076616c756500000000000000000000000000000000600082015250565b7f546f6b656e20646f6573206e6f74206578697374210000000000000000000000600082015250565b6136a581612edc565b81146136b057600080fd5b50565b6136bc81612f00565b81146136c757600080fd5b50565b6136d381612f0c565b81146136de57600080fd5b50565b6136ea81612f58565b81146136f557600080fd5b5056fea26469706673582212203c03d4ff0721c3e1a37a17ba16f95bbc0706a4df736f89c024d0b8f5cbcb902964736f6c63430008040033",
  "linkReferences": {},
  "deployedLinkReferences": {}
}